{
  "contractName": "EtherBank",
  "abi": [
    {
      "inputs": [],
      "payable": false,
      "stateMutability": "nonpayable",
      "type": "constructor"
    },
    {
      "payable": true,
      "stateMutability": "payable",
      "type": "fallback"
    },
    {
      "constant": false,
      "inputs": [
        {
          "name": "_amount",
          "type": "uint256"
        }
      ],
      "name": "store",
      "outputs": [],
      "payable": true,
      "stateMutability": "payable",
      "type": "function"
    },
    {
      "constant": false,
      "inputs": [
        {
          "name": "_amount",
          "type": "uint256"
        }
      ],
      "name": "withdraw",
      "outputs": [],
      "payable": true,
      "stateMutability": "payable",
      "type": "function"
    },
    {
      "constant": false,
      "inputs": [
        {
          "name": "_amount",
          "type": "uint256"
        }
      ],
      "name": "loan",
      "outputs": [],
      "payable": true,
      "stateMutability": "payable",
      "type": "function"
    },
    {
      "constant": false,
      "inputs": [
        {
          "name": "_amount",
          "type": "uint256"
        }
      ],
      "name": "returnLoan",
      "outputs": [],
      "payable": true,
      "stateMutability": "payable",
      "type": "function"
    },
    {
      "constant": true,
      "inputs": [
        {
          "name": "_holder",
          "type": "address"
        }
      ],
      "name": "balanceOf",
      "outputs": [
        {
          "name": "",
          "type": "uint256"
        }
      ],
      "payable": false,
      "stateMutability": "view",
      "type": "function"
    },
    {
      "constant": true,
      "inputs": [],
      "name": "contractBalance",
      "outputs": [
        {
          "name": "",
          "type": "uint256"
        }
      ],
      "payable": false,
      "stateMutability": "view",
      "type": "function"
    }
  ],
  "bytecode": "0x608060405234801561001057600080fd5b506000600181905550600060038190555033600560006101000a81548173ffffffffffffffffffffffffffffffffffffffff021916908373ffffffffffffffffffffffffffffffffffffffff16021790555061098f806100716000396000f300608060405260043610610078576000357c0100000000000000000000000000000000000000000000000000000000900463ffffffff1680632e1a7d4d1461007a578063365a53061461009a5780636057361d146100ba57806370a08231146100da5780638b7afe2e14610131578063e91261541461015c575b005b6100986004803603810190808035906020019092919050505061017c565b005b6100b860048036038101908080359060200190929190505050610315565b005b6100d8600480360381019080803590602001909291905050506105fe565b005b3480156100e657600080fd5b5061011b600480360381019080803573ffffffffffffffffffffffffffffffffffffffff16906020019092919050505061081b565b6040518082815260200191505060405180910390f35b34801561013d57600080fd5b50610146610863565b6040518082815260200191505060405180910390f35b61017a60048036038101908080359060200190929190505050610868565b005b60008060003373ffffffffffffffffffffffffffffffffffffffff1673ffffffffffffffffffffffffffffffffffffffff16815260200190815260200160002054141515156101ca57600080fd5b6000811115156101d957600080fd5b6000803373ffffffffffffffffffffffffffffffffffffffff1673ffffffffffffffffffffffffffffffffffffffff16815260200190815260200160002054811115151561022657600080fd5b806000803373ffffffffffffffffffffffffffffffffffffffff1673ffffffffffffffffffffffffffffffffffffffff16815260200190815260200160002054036000803373ffffffffffffffffffffffffffffffffffffffff1673ffffffffffffffffffffffffffffffffffffffff1681526020019081526020016000208190555080600154036001819055503373ffffffffffffffffffffffffffffffffffffffff166108fc3073ffffffffffffffffffffffffffffffffffffffff16319081150290604051600060405180830381858888f19350505050158015610311573d6000803e3d6000fd5b5050565b600060015411151561032657600080fd5b803414151561033457600080fd5b6000600460003373ffffffffffffffffffffffffffffffffffffffff1673ffffffffffffffffffffffffffffffffffffffff16815260200190815260200160002054141561047e5780600260003373ffffffffffffffffffffffffffffffffffffffff1673ffffffffffffffffffffffffffffffffffffffff1681526020019081526020016000208190555080600354016003819055506001600460003373ffffffffffffffffffffffffffffffffffffffff1673ffffffffffffffffffffffffffffffffffffffff1681526020019081526020016000208190555080600154036001819055503373ffffffffffffffffffffffffffffffffffffffff166108fc3073ffffffffffffffffffffffffffffffffffffffff16319081150290604051600060405180830381858888f19350505050158015610478573d6000803e3d6000fd5b506105fb565b80600260003373ffffffffffffffffffffffffffffffffffffffff1673ffffffffffffffffffffffffffffffffffffffff1681526020019081526020016000205401600260003373ffffffffffffffffffffffffffffffffffffffff1673ffffffffffffffffffffffffffffffffffffffff1681526020019081526020016000208190555080600354016003819055503373ffffffffffffffffffffffffffffffffffffffff166108fc3073ffffffffffffffffffffffffffffffffffffffff16319081150290604051600060405180830381858888f1935050505015801561056b573d6000803e3d6000fd5b506002600460003373ffffffffffffffffffffffffffffffffffffffff1673ffffffffffffffffffffffffffffffffffffffff1681526020019081526020016000205414156105fa576003600460003373ffffffffffffffffffffffffffffffffffffffff1673ffffffffffffffffffffffffffffffffffffffff168152602001908152602001600020819055505b5b50565b60008111151561060d57600080fd5b803414151561061b57600080fd5b6000600460003373ffffffffffffffffffffffffffffffffffffffff1673ffffffffffffffffffffffffffffffffffffffff1681526020019081526020016000205414156106fb57806000803373ffffffffffffffffffffffffffffffffffffffff1673ffffffffffffffffffffffffffffffffffffffff1681526020019081526020016000208190555080600154016001819055506002600460003373ffffffffffffffffffffffffffffffffffffffff1673ffffffffffffffffffffffffffffffffffffffff16815260200190815260200160002081905550610818565b806000803373ffffffffffffffffffffffffffffffffffffffff1673ffffffffffffffffffffffffffffffffffffffff16815260200190815260200160002054016000803373ffffffffffffffffffffffffffffffffffffffff1673ffffffffffffffffffffffffffffffffffffffff1681526020019081526020016000208190555080600154016001819055506001600460003373ffffffffffffffffffffffffffffffffffffffff1673ffffffffffffffffffffffffffffffffffffffff168152602001908152602001600020541415610817576003600460003373ffffffffffffffffffffffffffffffffffffffff1673ffffffffffffffffffffffffffffffffffffffff168152602001908152602001600020819055505b5b50565b60008060008373ffffffffffffffffffffffffffffffffffffffff1673ffffffffffffffffffffffffffffffffffffffff168152602001908152602001600020549050919050565b600090565b6000600260003373ffffffffffffffffffffffffffffffffffffffff1673ffffffffffffffffffffffffffffffffffffffff16815260200190815260200160002054141515156108b757600080fd5b80341415156108c557600080fd5b80600260003373ffffffffffffffffffffffffffffffffffffffff1673ffffffffffffffffffffffffffffffffffffffff1681526020019081526020016000205403600260003373ffffffffffffffffffffffffffffffffffffffff1673ffffffffffffffffffffffffffffffffffffffff1681526020019081526020016000208190555080600354036003819055508060015401600181905550505600a165627a7a7230582055a76c89cad16926f5fda0d947afd9136dc95ef71a9c824c8d8c512f30ffedb60029",
  "source": "pragma solidity ^0.4.23;\ncontract EtherBank{\n    mapping (address => uint) balances;\n    uint totalBalances;\n    mapping(address => uint) loans;\n    uint totalLoans;\n    mapping(address=>uint) statusOfCustomers; //three statuses, 1=loaned 2=stored 3=both\n    address owner;\n\n    constructor() public{\n        totalBalances = 0;\n        totalLoans = 0;\n        owner = msg.sender;\n\n\n    }\n    function store(uint _amount) public payable {\n        require(_amount > 0); //prevents people from creating accounts of 0\n        //if they have no account\n        //implicitly stores ether into contract\n        \n        require(msg.value == _amount); \n        if(statusOfCustomers[msg.sender] == 0){\n            balances[msg.sender] = _amount;\n            totalBalances = totalBalances + _amount;\n            statusOfCustomers[msg.sender] = 2;\n        }else{ //if they have an account\n            balances[msg.sender] = balances[msg.sender] + _amount;\n            totalBalances = totalBalances + _amount;\n            if(statusOfCustomers[msg.sender] == 1) //set the status of the address to both stored and loaned\n            {\n                statusOfCustomers[msg.sender] = 3;\n            }\n\n        }\n    }\n    function withdraw(uint _amount) public payable{\n       require(balances[msg.sender] != 0); //make sure they have and account and that account has balance\n       require(_amount > 0);\n       require(_amount <= balances[msg.sender]);\n        balances[msg.sender] = balances[msg.sender] - _amount;\n        totalBalances = totalBalances - _amount;\n        msg.sender.transfer(address(this).balance);\n    }\n    \n    function loan(uint _amount) public payable { //some logic needs to be fixed here\n        require(totalBalances > 0);\n        require(msg.value == _amount);\n        if(statusOfCustomers[msg.sender] == 0){\n            loans[msg.sender] = _amount;\n            totalLoans = totalLoans + _amount;\n            statusOfCustomers[msg.sender] = 1;\n            totalBalances = totalBalances-_amount;\n            msg.sender.transfer(address(this).balance);\n\n        }else{\n            loans[msg.sender] = loans[msg.sender] + _amount;\n            totalLoans = totalLoans + _amount;\n            msg.sender.transfer(address(this).balance);\n            if(statusOfCustomers[msg.sender] == 2)\n            {\n                statusOfCustomers[msg.sender] = 3;\n            }\n\n        }\n\n    } \n    function returnLoan(uint _amount) public payable{ //payable allows for implicit transactions\n       require(loans[msg.sender] != 0); //making sure they have a loan\n        require(msg.value == _amount); //make sure the value sent \n        loans[msg.sender] = loans[msg.sender] - _amount;\n        totalLoans = totalLoans - _amount;\n        totalBalances = totalBalances + _amount;\n        //ether implicitly gets put into vault after loan is repaid\n\n    }\n    function balanceOf(address _holder) public view returns(uint) {\n        return balances[_holder];\n\n    }\n    function contractBalance() public view returns(uint){\n        address(this).balance;\n    }\n    function() external payable { }\n    \n\n   \n\n\n\n\n\n\n}",
  "sourcePath": "/home/satya/dev/etherbank/EtherBank/contracts/EtherBank.sol",
  "compiler": {
    "name": "solc",
    "version": "0.4.24+commit.e67f0147.Emscripten.clang"
  },
  "schemaVersion": "2.0.1",
  "updatedAt": "2018-09-06T20:47:37.175Z"
}