{
  "contractName": "EtherBank",
  "abi": [
    {
      "inputs": [],
      "payable": false,
      "stateMutability": "nonpayable",
      "type": "constructor"
    },
    {
      "constant": false,
      "inputs": [
        {
          "name": "_amount",
          "type": "uint256"
        }
      ],
      "name": "store",
      "outputs": [],
      "payable": true,
      "stateMutability": "payable",
      "type": "function"
    },
    {
      "constant": false,
      "inputs": [
        {
          "name": "_amount",
          "type": "uint256"
        }
      ],
      "name": "withdraw",
      "outputs": [],
      "payable": true,
      "stateMutability": "payable",
      "type": "function"
    },
    {
      "constant": false,
      "inputs": [
        {
          "name": "_amount",
          "type": "uint256"
        }
      ],
      "name": "loan",
      "outputs": [],
      "payable": true,
      "stateMutability": "payable",
      "type": "function"
    },
    {
      "constant": false,
      "inputs": [
        {
          "name": "_amount",
          "type": "uint256"
        }
      ],
      "name": "returnLoan",
      "outputs": [],
      "payable": true,
      "stateMutability": "payable",
      "type": "function"
    },
    {
      "constant": true,
      "inputs": [
        {
          "name": "_holder",
          "type": "address"
        }
      ],
      "name": "balanceOf",
      "outputs": [
        {
          "name": "",
          "type": "uint256"
        }
      ],
      "payable": false,
      "stateMutability": "view",
      "type": "function"
    }
  ],
  "bytecode": "0x608060405234801561001057600080fd5b506000600181905550600060038190555033600560006101000a81548173ffffffffffffffffffffffffffffffffffffffff021916908373ffffffffffffffffffffffffffffffffffffffff160217905550610814806100716000396000f30060806040526004361061006d576000357c0100000000000000000000000000000000000000000000000000000000900463ffffffff1680632e1a7d4d14610072578063365a5306146100925780636057361d146100b257806370a08231146100d2578063e912615414610129575b600080fd5b61009060048036038101908080359060200190929190505050610149565b005b6100b060048036038101908080359060200190929190505050610238565b005b6100d060048036038101908080359060200190929190505050610502565b005b3480156100de57600080fd5b50610113600480360381019080803573ffffffffffffffffffffffffffffffffffffffff169060200190929190505050610702565b6040518082815260200191505060405180910390f35b6101476004803603810190808035906020019092919050505061074a565b005b806000803373ffffffffffffffffffffffffffffffffffffffff1673ffffffffffffffffffffffffffffffffffffffff16815260200190815260200160002054036000803373ffffffffffffffffffffffffffffffffffffffff1673ffffffffffffffffffffffffffffffffffffffff1681526020019081526020016000208190555080600154036001819055503373ffffffffffffffffffffffffffffffffffffffff166108fc3073ffffffffffffffffffffffffffffffffffffffff16319081150290604051600060405180830381858888f19350505050158015610234573d6000803e3d6000fd5b5050565b6000600460003373ffffffffffffffffffffffffffffffffffffffff1673ffffffffffffffffffffffffffffffffffffffff1681526020019081526020016000205414156103825780600260003373ffffffffffffffffffffffffffffffffffffffff1673ffffffffffffffffffffffffffffffffffffffff1681526020019081526020016000208190555080600354016003819055506001600460003373ffffffffffffffffffffffffffffffffffffffff1673ffffffffffffffffffffffffffffffffffffffff1681526020019081526020016000208190555080600154036001819055503373ffffffffffffffffffffffffffffffffffffffff166108fc3073ffffffffffffffffffffffffffffffffffffffff16319081150290604051600060405180830381858888f1935050505015801561037c573d6000803e3d6000fd5b506104ff565b80600260003373ffffffffffffffffffffffffffffffffffffffff1673ffffffffffffffffffffffffffffffffffffffff1681526020019081526020016000205401600260003373ffffffffffffffffffffffffffffffffffffffff1673ffffffffffffffffffffffffffffffffffffffff1681526020019081526020016000208190555080600354016003819055503373ffffffffffffffffffffffffffffffffffffffff166108fc3073ffffffffffffffffffffffffffffffffffffffff16319081150290604051600060405180830381858888f1935050505015801561046f573d6000803e3d6000fd5b506002600460003373ffffffffffffffffffffffffffffffffffffffff1673ffffffffffffffffffffffffffffffffffffffff1681526020019081526020016000205414156104fe576003600460003373ffffffffffffffffffffffffffffffffffffffff1673ffffffffffffffffffffffffffffffffffffffff168152602001908152602001600020819055505b5b50565b6000600460003373ffffffffffffffffffffffffffffffffffffffff1673ffffffffffffffffffffffffffffffffffffffff1681526020019081526020016000205414156105e257806000803373ffffffffffffffffffffffffffffffffffffffff1673ffffffffffffffffffffffffffffffffffffffff1681526020019081526020016000208190555080600154016001819055506002600460003373ffffffffffffffffffffffffffffffffffffffff1673ffffffffffffffffffffffffffffffffffffffff168152602001908152602001600020819055506106ff565b806000803373ffffffffffffffffffffffffffffffffffffffff1673ffffffffffffffffffffffffffffffffffffffff16815260200190815260200160002054016000803373ffffffffffffffffffffffffffffffffffffffff1673ffffffffffffffffffffffffffffffffffffffff1681526020019081526020016000208190555080600154016001819055506001600460003373ffffffffffffffffffffffffffffffffffffffff1673ffffffffffffffffffffffffffffffffffffffff1681526020019081526020016000205414156106fe576003600460003373ffffffffffffffffffffffffffffffffffffffff1673ffffffffffffffffffffffffffffffffffffffff168152602001908152602001600020819055505b5b50565b60008060008373ffffffffffffffffffffffffffffffffffffffff1673ffffffffffffffffffffffffffffffffffffffff168152602001908152602001600020549050919050565b80600260003373ffffffffffffffffffffffffffffffffffffffff1673ffffffffffffffffffffffffffffffffffffffff1681526020019081526020016000205403600260003373ffffffffffffffffffffffffffffffffffffffff1673ffffffffffffffffffffffffffffffffffffffff1681526020019081526020016000208190555080600354036003819055508060015401600181905550505600a165627a7a723058206bac86f97be042eb6c6d0d7348e122128a020ab07c16b3d12765e597cb08c1550029",
  "source": "pragma solidity ^0.4.23;\r\ncontract EtherBank{\r\n    mapping (address => uint) balances;\r\n    uint totalBalances;\r\n    mapping(address => uint) loans;\r\n    uint totalLoans;\r\n    mapping(address=>uint) statusOfCustomers; //three statuses, 1=loaned 2=stored 3=both\r\n    address owner;\r\n\r\n    constructor() public{\r\n        totalBalances = 0;\r\n        totalLoans = 0;\r\n        owner = msg.sender;\r\n\r\n\r\n    }\r\n    function store(uint _amount) public payable {\r\n      //  require(_amount > 0); //prevents people from creating accounts of 0\r\n        //if they have no account\r\n        //implicitly stores ether into contract\r\n     //   require(msg.value == _amount);\r\n        if(statusOfCustomers[msg.sender] == 0){\r\n            balances[msg.sender] = _amount;\r\n            totalBalances = totalBalances + _amount;\r\n            statusOfCustomers[msg.sender] = 2;\r\n        }else{ //if they have an account\r\n            balances[msg.sender] = balances[msg.sender] + _amount;\r\n            totalBalances = totalBalances + _amount;\r\n            if(statusOfCustomers[msg.sender] == 1) //set the status of the address to both stored and loaned\r\n            {\r\n                statusOfCustomers[msg.sender] = 3;\r\n            }\r\n\r\n        }\r\n    }\r\n    function withdraw(uint _amount) public payable{\r\n      //  require(balances[msg.sender] != 0); //make sure they have and account and that account has balance\r\n      //  require(_amount > 0);\r\n      //  require(_amount <= balances[msg.sender]);\r\n        balances[msg.sender] = balances[msg.sender] - _amount;\r\n        totalBalances = totalBalances - _amount;\r\n        msg.sender.transfer(address(this).balance);\r\n    }\r\n    \r\n    function loan(uint _amount) public payable { //some logic needs to be fixed here\r\n       // require(totalBalances > 0);\r\n      //  require(msg.value == _amount);\r\n        if(statusOfCustomers[msg.sender] == 0){\r\n            loans[msg.sender] = _amount;\r\n            totalLoans = totalLoans + _amount;\r\n            statusOfCustomers[msg.sender] = 1;\r\n            totalBalances = totalBalances-_amount;\r\n            msg.sender.transfer(address(this).balance);\r\n\r\n        }else{\r\n            loans[msg.sender] = loans[msg.sender] + _amount;\r\n            totalLoans = totalLoans + _amount;\r\n            msg.sender.transfer(address(this).balance);\r\n            if(statusOfCustomers[msg.sender] == 2)\r\n            {\r\n                statusOfCustomers[msg.sender] = 3;\r\n            }\r\n\r\n        }\r\n\r\n    } \r\n    function returnLoan(uint _amount) public payable{ //payable allows for implicit transactions\r\n      //  require(loans[msg.sender] != 0); //making sure they have a loan\r\n      //  require(msg.value == _amount); //make sure the value sent \r\n        loans[msg.sender] = loans[msg.sender] - _amount;\r\n        totalLoans = totalLoans - _amount;\r\n        totalBalances = totalBalances + _amount;\r\n        //ether implicitly gets put into vault after loan is repaid\r\n\r\n    }\r\n    function balanceOf(address _holder) public view returns(uint) {\r\n        return balances[_holder];\r\n\r\n    }\r\n\r\n   \r\n\r\n\r\n\r\n\r\n\r\n\r\n}",
  "sourcePath": "C:\\dev\\EtherBank\\contracts\\EtherBank.sol",
  "compiler": {
    "name": "solc",
    "version": "0.4.24+commit.e67f0147.Emscripten.clang"
  },
  "schemaVersion": "2.0.1",
  "updatedAt": "2018-08-09T19:42:38.775Z"
}